:020000040800F2
:1000000000000220752B0208E9480108ED480108AC
:10001000F1480108F5480108F9480108000000000E
:10002000000000000000000000000000FD48010882
:1000300001490108000000000549010809490108BB
:10004000C52B0208C52B0208C52B0208C52B0208C8
:10005000C52B0208C52B02080D490108C52B020853
:10006000C52B0208154901081D490108C52B0208C6
:10007000C52B0208C52B0208C52B0208C52B020898
:10008000C52B0208C52B0208C52B0208C52B020888
:10009000C52B0208C52B0208C52B020825490108FB
:1000A000C52B0208C52B0208C52B0208C52B020868
:1000B0002D49010839490108C52B0208C52B020842
:1000C000C52B0208C52B0208C52B0208C52B020848
:1000D000C52B0208C52B020845490108C52B02089B
:1000E000C52B0208C52B0208C52B0208C52B020828
:1000F000C52B0208C52B0208C52B0208C52B020818
:10010000C52B020851490108C52B0208C52B02085E
:10011000C52B0208C52B0208C52B0208C52B0208F7
:10012000C52B02085D490108A5490108ED490108F0
:10013000C52B0208C52B0208C52B0208C52B0208D7
:10014000C52B0208C52B0208C52B0208F949010876
:10015000C52B0208C52B0208C52B0208C52B0208B7
:10016000C52B0208C52B0208C52B0208C52B0208A7
:10017000C52B0208C52B0208C52B02080000000091
:08018000C52B0208C52B020883
:1001900010B5054C237833B9044B13B10448AFF3C1
:1001A00000800123237010BD3003002000000000F8
:1001B000FC49020808B5034B1BB103490348AFF3E0
:1001C000008008BD0000000034030020FC49020844
:1001D00081F0004102E000BF83F0004330B54FEAF8
:1001E00041044FEA430594EA050F08BF90EA020F65
:1001F0001FBF54EA000C55EA020C7FEA645C7FEAF8
:10020000655C00F0E2804FEA5454D4EB5555B8BF1A
:100210006D420CDD2C4480EA020281EA030382EA8B
:10022000000083EA010180EA020281EA0303362D1D
:1002300088BF30BD11F0004F4FEA01314FF4801CF0
:100240004CEA113102D0404261EB410113F0004F02
:100250004FEA03334CEA133302D0524263EB4303B9
:1002600094EA050F00F0A780A4F10104D5F1200E57
:100270000DDB02FA0EFC22FA05F2801841F10001B2
:1002800003FA0EF2801843FA05F359410EE0A5F186
:1002900020050EF1200E012A03FA0EFC28BF4CF0B7
:1002A000020C43FA05F3C01851EBE37101F000456D
:1002B00007D54FF0000EDCF1000C7EEB00006EEB7A
:1002C0000101B1F5801F1BD3B1F5001F0CD3490804
:1002D0005FEA30004FEA3C0C04F101044FEA44525B
:1002E00012F5800F80F09A80BCF1004F08BF5FEAE2
:1002F000500C50F1000041EB045141EA050130BDC2
:100300005FEA4C0C404141EB010111F4801FA4F164
:100310000104E9D191F0000F04BF01460020B1FAB9
:1003200081F308BF2033A3F10B03B3F120020CDAF1
:100330000C3208DD02F1140CC2F10C0201FA0CF0CF
:1003400021FA02F10CE002F11402D8BFC2F1200C34
:1003500001FA02F120FA0CFCDCBF41EA0C019040EA
:10036000E41AA2BF01EB0451294330BD6FEA040433
:100370001F3C1CDA0C340EDC04F11404C4F120021E
:1003800020FA04F001FA02F340EA030021FA04F330
:1003900045EA030130BDC4F10C04C4F1200220FA87
:1003A00002F001FA04F340EA0300294630BD21FAC5
:1003B00004F0294630BD94F0000F83F4801306BF8B
:1003C00081F480110134013D4EE77FEA645C18BF7F
:1003D0007FEA655C29D094EA050F08BF90EA020F16
:1003E00005D054EA000C04BF1946104630BD91EA0E
:1003F000030F1EBF0021002030BD5FEA545C05D111
:100400004000494128BF41F0004130BD14F580044F
:100410003CBF01F5801130BD01F0004545F0FE41C3
:1004200041F470014FF0000030BD7FEA645C1ABFF8
:10043000194610467FEA655C1CBF0B46024650EA2F
:10044000013406BF52EA033591EA030F41F400215B
:1004500030BD00BF90F0000F04BF0021704730B5E1
:100460004FF4806404F132044FF000054FF00001B6
:1004700050E700BF90F0000F04BF0021704730B577
:100480004FF4806404F1320410F0004548BF40424C
:100490004FF000013EE700BF42004FEAE2014FEAA1
:1004A00031014FEA02701FBF12F07F4393F07F4F7C
:1004B00081F06051704732F07F4208BF704793F07F
:1004C0007F4F04BF41F40021704730B54FF4607492
:1004D00001F0004521F000411CE700BF50EA010295
:1004E00008BF704730B54FF000050AE050EA01023E
:1004F00008BF704730B511F0004502D5404261EBAE
:1005000041014FF4806404F132045FEA915C3FF4EE
:10051000D8AE4FF003025FEADC0C18BF03325FEA8B
:10052000DC0C18BF033202EBDC02C2F1200300FA3C
:1005300003FC20FA02F001FA03FE40EA0E0021FA61
:1005400002F11444BDE600BF53B94AB9002908BFFF
:1005500000281CBF4FF0FF314FF0FF3000F082B990
:10056000ADF1080C6DE904CE00F016F8DDF804E0FA
:10057000DDE9022304B0704780EA104080EA1020D1
:1005800080EA101046F6961300F00F0043FA00F0D0
:1005900000F00100704700BF2DE9F047089E0446B7
:1005A0008846002B4BD18A42154667D9B2FA82F2AF
:1005B0004AB1C2F1200701FA02F320FA07F7954089
:1005C00047EA030894404FEA154E230CB8FBFEF7A8
:1005D0001FFA85FC0EFB178843EA084307FB0CF162
:1005E000994209D9EB1807F1FF3080F01B8199423D
:1005F00040F21881023F2B445B1AA4B2B3FBFEF019
:100600000EFB103344EA034400FB0CFCA44509D95B
:100610002C1900F1FF3380F00781A44540F20481DA
:1006200002382C4440EA0740A4EB0C0400271EB11A
:10063000D4400023C6E900433946BDE8F0878B4229
:1006400009D9002E00F0EB800027C6E900013846EA
:100650003946BDE8F087B3FA83F7002F47D18B42C4
:1006600002D3824200F2FA80841A61EB0303012074
:100670009846002EE0D0C6E90048DDE702B9FFDE6B
:10068000B2FA82F2002A40F08F80491B4FEA154EE1
:100690001FFA85F80127B1FBFEFC230C0EFB1C1191
:1006A00043EA014308FB0CF1994207D9EB180CF11E
:1006B000FF3002D2994200F2CD808446591AA3B28B
:1006C000B1FBFEF00EFB101443EA044408FB00F8F3
:1006D000A04507D92C1900F1FF3302D2A04500F242
:1006E000B6801846A4EB080440EA0C409FE7C7F127
:1006F000200CBB4022FA0CFE4EEA030E01FA07F46E
:1007000020FA0CF521FA0CF34FEA1E482543B3FBFF
:10071000F8F92C0C08FB19331FFA8EFA44EA03434C
:1007200009FB0AF49C4202FA07F200FA07F10BD91E
:100730001EEB030309F1FF3080F087809C4240F2FA
:100740008480A9F1020973441B1BADB2B3FBF8F01E
:1007500008FB103345EA034400FB0AFAA24508D916
:100760001EEB040400F1FF336BD2A24569D90238B5
:10077000744440EA0940A0FB0289A4EB0A044C45FA
:10078000C2464B4654D351D0002E69D0B1EB0A0576
:1007900064EB030404FA0CFCFD40FC404CEA050544
:1007A000C6E90054002747E7C2F1200320FA03F707
:1007B000954001FA02F021FA03F34FEA154E38434F
:1007C000010CB3FBFEF71FFA85F80EFB173341EA65
:1007D000034107FB08F38B4204FA02F407D96918B6
:1007E00007F1FF3C2FD28B422DD9023F2944CB1A6F
:1007F00081B2B3FBFEF00EFB103341EA034100FB74
:1008000008F38B4207D9691800F1FF3C17D28B42DD
:1008100015D902382944C91A40EA07473BE7374649
:10082000304609E70746E7E61846FBE64145ABD206
:10083000B8EB020A69EB0E0201381346A4E76046E2
:10084000E9E7184695E76746D1E781467CE7023835
:100850002C4447E7ACF1020C2B442FE7384608E75D
:100860003746E9E6704700BF10F8012B11F8013B4D
:10087000012A28BF9A42F7D0D01A7047034613F8CE
:10088000012B002AFBD1181A013870470000000024
:1008900001F0FF01102A2BDB10F0070F08D010F831
:1008A000013B013A8B422DD010F0070F42B3F6D135
:1008B000F0B441EA012141EA014122F007047FF04E
:1008C00000070023F0E80256083C85EA010586EAA5
:1008D000010685FA47F5A3FA87F586FA47F6A5FAE1
:1008E00087F68EB9EED1F0BC01F0FF0102F00702ED
:1008F00032B110F8013B013A83EA010313B1F8D198
:100900000020704701387047002D06BF3546033878
:10091000073815F0010F07D1013015F4807F02BFB1
:10092000013015F4C03F0130F0BC0138704700BF02
:1009300008B50B4B1A6842F400721A601A6842F448
:1009400080621A601A6842F480721A60032000F014
:100950002DF8002013F08AFF13F0E4FD002008BDFD
:10096000003C0240034A044B11681B780B4413609F
:10097000704700BF8804002000000020014B186869
:10098000704700BF8804002038B50446FFF7F6FF23
:10099000631C054602D0044B1B781C44FFF7EEFF96
:1009A000401BA042FAD338BD00000020074AD3689C
:1009B0004FF6FF010B40000243F0BF6300F4E0601C
:1009C00043F400330343D360704700BF00ED00E001
:1009D000184BDB68C3F3022330B4C3F10705042DC1
:1009E00003F1040428BF0425062C19D9033B4FF05A
:1009F000FF349C4022EA04044FF0FF32AA4021EA6F
:100A0000020101FA03F2224312010028D2B20ADBEA
:100A100000F1604000F5614080F8002330BC704771
:100A200000242346E8E7044B00F00F0003441A7645
:100A300030BC704700ED00E0FCEC00E000F01F016E
:100A400001234009024A8B4042F82030704700BF22
:100A500000E100E0F8B50446FFF790FF002C54D009
:100A60000222236884F835201A68002122F001024E
:100A700084F8341005461A6005E0FFF77FFF401B3D
:100A800005283BD823681A68D107F6D4D4E9012693
:100A9000D4E90351324360691F682A43D4E90665EB
:100AA0000A430243216A354832432A430A43616AB2
:100AB0003840042942EA000229D01A605A6922F01B
:100AC00007021143DAB22E485961103AA0FB021214
:100AD00012092C4923F47F73895CE16523F0030339
:100AE000032A88BF04333F228A4001250021A365E1
:100AF00008469A60616584F83550F8BD03232022CA
:100B00006265184684F83530F8BD0120F8BDD4E997
:100B10000B0101430A43A56A1A605A6945F00401B2
:100B200022F0070211430028CCD07EB1B6F5005F59
:100B300016D0022D03D9032DC4D1C201C2D5012381
:100B400040226265184684F83530F8BD012D03D087
:100B5000F3D3022DB6D1F0E7B0F1C07FB2D1EEE70A
:100B6000032DAFD801A252F825F000BF3F0B0008BB
:100B70003B0B00083F0B0008590B00083F8010F0AA
:100B8000ABAAAAAA144A0208F0B490F83440012C87
:100B900039D090F83540866D0125AC4280F834504C
:100BA0002BD104680227002580F83570456525683B
:100BB000876825F48025402F256063600ABFA26006
:100BC000A160E160C16D18BFE2603F238B40026C01
:100BD000B360236843F016032360636943F0800326
:100BE00063611AB1236843F008032360236843F06C
:100BF000010323600020F0BC7047002380F83430EC
:100C0000F0BC022070470220F0BC704790F83530ED
:100C1000022B03D08023436501207047026805231F
:100C200080F83530136823F001031360002070470B
:100C3000F0B583B00023876D0193C36D3D686549AE
:100C400008229A402A4204460E6803D001680868C8
:100C5000400759D401229A402A4203D021684969A9
:100C6000080674D404229A402A4203D021680968F5
:100C7000890766D410229A402A4203D02168086866
:100C800000074BD420229A402A4214D021680868D9
:100C9000C00610D5BA6094F83520052A63D00B68D9
:100CA00013F4802F0B687ED0190340F18980E36B29
:100CB0000BB120469847636D23B3636DDA071AD5ED
:100CC0000523226884F835301368434923F0010373
:100CD000A1FB06161360B60A02E01368DB0704D511
:100CE000019B0133B3420193F7D90022012384F819
:100CF000342084F83530E36C23B1204603B0BDE8DE
:100D0000F040184703B0F0BD086820F00400086008
:100D1000BA60626D42F0010262659BE7BA600A68E0
:100D200012F4802F0A6818D1D20503D40A6822F081
:100D300008020A60226C002AA4D020469047E36D86
:100D4000A0E7BA60626D42F00402626592E7BA60A1
:100D5000626D42F00202626584E71103EAD5A26C7B
:100D6000002AEAD18EE70A68206C22F016020A6097
:100D70004A6922F080024A6138B30A6822F0080208
:100D80000A603F22216D02FA03F300200122BB60BA
:100D900084F8340084F835200029B3D0204603B00D
:100DA000BDE8F040084713F4807380D10A68012041
:100DB00022F010020A6084F8343084F8350076E7B7
:100DC000636C002B7FF475AF75E7A26C002AD4D159
:100DD000D7E700BF20010020B5814E1B034690F8E5
:100DE0003400012814D010B493F835400120844217
:100DF00083F8340005D0002283F834205DF8044BDA
:100E00007047052918D8DFE801F0080B0E1114050A
:100E1000022070471A650020EDE7DA630020EAE758
:100E20001A640020E7E75A640020E4E79A6400208F
:100E3000E1E7DA640020DEE70020DCE72DE9F04F8F
:100E4000DFF830C2DFF83082D1F800E083B000254F
:100E500003E00135102D00F09A800123AB400EEA2B
:100E60000304A342F5D14E6826F0100ABAF1020F2E
:100E700000F090804FEA45090322D0F800B002FA52
:100E800009F2D24306F0030702EA0B0B07FA09F74F
:100E90000AF1FF3A47EA0B07BAF1010F076040F287
:100EA0009F80C7688B683A4003FA09F31343C36015
:100EB000F300CED500230193D8F8443043F48043A7
:100EC000C8F84430D8F8443025F0030202F18042DB
:100ED00003F4804302F59C32019305F00307019B64
:100EE000D2F80890BF000F23BB4029EA030A5B4BEE
:100EF000984224D003F58063984200F08480584BD8
:100F0000984200F08780574B984200F08A80564BF9
:100F1000984200F08D80554B984200F09080544BE1
:100F2000984200F09380DFF8549148450CBF4FF091
:100F300007094FF0080909FA07F74AEA070AC2F851
:100F400008A0DCF80030E243F70354BF134023430A
:100F5000CCF80030DCF80430B70354BF134023430F
:100F6000CCF80430DCF80830F70254BF13402343B8
:100F7000CCF80830DCF80C30B60205F1010554BF9E
:100F800013402343102DCCF80C307FF466AF03B030
:100F9000BDE8F08F4FEAD50900EB890905F0070796
:100FA000D9F82020BF004FF00F0B0BFA07FB22EA05
:100FB0000B0A0A69BA4042EA0A02C9F820204FEA3D
:100FC00045090322D0F800A002FA09F2D24306F044
:100FD000030702EA0A0A07FA09F747EA0A0707605D
:100FE000876807EA020ACF6807FA09F747EA0A079B
:100FF0008760D0F804A0C6F300172AEA0303AF40C5
:101000001F4347604DE74FF0010909FA07F74AEA25
:10101000070A94E74FF0020909FA07F74AEA070AB4
:101020008DE74FF0030909FA07F74AEA070A86E74E
:101030004FF0040909FA07F74AEA070A7FE74FF079
:10104000050909FA07F74AEA070A78E74FF006099F
:1010500009FA07F74AEA070A71E700BF00000240F1
:1010600000080240000C0240001002400014024040
:1010700000180240003C014000380240001C0240C1
:101080000369194214BF01200020704702B9090406
:10109000816170474369594041617047044A516911
:1010A000014200D1704708B550610CF0A5FD08BDA4
:1010B000003C01402DE9F04790F8904284B0012CAB
:1010C0009DF830C09DF834E0BDF8388026D001EBA3
:1010D000810400EBC4040546D60902F07F004FF0FE
:1010E000010A85F890A284F8383084F8391084F821
:1010F0003FE084F83CC084F83A0084F83B602868FC
:10110000A4F84080CDE901E8CDF800C004F008FB68
:10111000002385F8903204B0BDE8F087022004B0C7
:10112000BDE8F08790F89032012B0BD010B5012369
:10113000044680F89032006804F0B2FC002084F885
:10114000900210BD0220704700283AD02DE9F041EE
:10115000032307468AB080F89132044614F0E0FD7C
:10116000386804F06DF954F8106B0FCC6D460FC55C
:101170000FCC0FC594E8030085E8030007F10408CD
:1011800098E80E0030463E4604F0F6F80121386833
:1011900004F05EF956F810CB0FCE6D460FC50FCE9A
:1011A0000FC594E8030085E80300604698E80E0048
:1011B00004F0BCF90123002087F891320AB0BDE8A1
:1011C000F0810120704700BFF0B58C009DF814C07D
:1011D000069FBDF81C60651800EBC505BCF1000F4B
:1011E00014BF4FF0020E4FF0030E85F83B2085F838
:1011F0003F3085F842E09DF82050032B1BD8DFE8F4
:1012000003F0024D3931BCF1010F14D19AB96318C2
:1012100000EBC303002E58D1022283F851C063189B
:1012200000EBC30393F85CC083F84220BCF1020FCB
:1012300001D083F83D50631800EBC303282283F8E4
:101240003910002402FB0101C3E91176027C006819
:1012500083F85C40DC6483F85D403831BDE8F040E1
:1012600004F0D4BA631800EBC3034ABB93F851509F
:1012700015BB17E0CAB9621800EBC20292F851C060
:1012800092F85CE0BCF1000F18BF9C46BEF1020F63
:1012900082F842C0CFD082F83D50CCE7631800EB13
:1012A000C303002283F84220C5E7631800EBC303A1
:1012B00093F85020002AF5D0022283F84220BAE7A2
:1012C00093F85020002AF7D1ECE793F85120002A38
:1012D00018BF0222A3E700BF2DE9F04F056885B0D3
:1012E0000446284604F01EF9012802D005B0BDE8E6
:1012F000F08F206804F012F90028F7D0206804F07D
:101300000DF910F4001F20681CBF4FF40013436157
:1013100004F004F910F4801F20681CBF4FF4801300
:10132000436104F0FBF810F0806F20681CBF4FF0A1
:101330008063436104F0F2F810F0020F20681CBFD4
:101340000223436104F0EAF8860000F10981206875
:1013500004F0E4F8C001266800F1C780304604F0CC
:10136000DDF8020700F11281206804F0D7F810F0D0
:10137000007F20683ED104F0D1F8C306B6D52568B9
:10138000AB6923F01003AB612E6AC6F34342022A15
:101390002BD1C6F30A18B8F1000F26D006F00F06BD
:1013A00006EB860704EBC707796CF1B14246284685
:1013B00004F0A0F805F5A06303EB4613786C1D69F3
:1013C000F96CBF4A404441442A407864F9645AB1F8
:1013D0001A6822F0804242F000421A6097F85030BA
:1013E00083F0010387F850302568AB6943F01003A0
:1013F000AB617BE704F044FBA168834620680029C9
:1014000000F0C08005F5A06500264FF0010A38E025
:101410005B0740F1C2800423BB60FB6843F002031A
:10142000FB60BB689B0500F1F080BB68D80740F10A
:10143000C2802369002B40F0AA814FEA880303EBA6
:10144000080104EBC1010020886581F85DA0C7F8A0
:1014500008A091F83F0010F0FD0F00F05081032824
:1014600000F03182434404EBC30393F8502082F030
:10147000010283F85020A168206801368E4280F076
:1014800081800AFA06F313EA0B0FF6D073015FFAB4
:1014900086F85B594FEA481200F5A06902EB09078C
:1014A00013F4004FBB68B3D15B077DD4BB6813F066
:1014B000200300F0B88008EB8809202304EBC90959
:1014C000BB6099F83D30012BD7D1FB68042243F073
:1014D0000203414689F85D20FB6004F0E1FA022333
:1014E00089F85C30A1682068C7E7D6F840340293D9
:1014F000D6F840340393039B23F02E030393029BFF
:101500009907374607D5029BDA0700F14E81039B06
:1015100043F002030393029B1B0715D5039B43F083
:1015200008030393029B580740F12581A169022912
:1015300000F07381E368032B04BF4EF66023C6F806
:101540000434204614F024FC2668029B990603D537
:10155000039B43F020030393039BC7F84034FDE64D
:10156000D5F8403423F02E03C5F84034204614F05B
:1015700013FC0121206804F069F820684FF0005343
:101580004361E5E64FF000734361F4E6204614F052
:10159000FBFB206808234361E7E6BB68990640F13E
:1015A00091802023BB603CE70423BB60FB6843F0D1
:1015B0000203FB6061E7BB68990740F1AD804FEA29
:1015C000880303EB080104EBC101D7F80CC091F8C4
:1015D0005D002CF0020C0128C7F80CC000F0ED8073
:1015E000052800F0EA80062800F03E81082800F077
:1015F0003B8191F85C000223024641462046BB60D5
:1016000014F0CEFBA168206837E7FB68206843F040
:1016100002034146FB6004F043FA4FF40073BB60E1
:10162000A168206829E7BA68520600F1E180BB682A
:1016300013F4007340F0FE80BA68D20700F12F81E6
:10164000BB6813F0080340F04E81BA68D20600F17F
:101650006481BB681B0600F18181BB6813F4806C58
:1016600040F08E81BB689A077FF507AF282303FB04
:101670000843F96893F85D2021F00201012AF9601E
:1016800000F09381032A00F0AC81042A00F0AD81C0
:10169000052A00F0A781062A00F09581082A00F0AB
:1016A0009281282303FB0842022392F85C20BB604E
:1016B0004146204614F074FBA1682068DDE600BFB7
:1016C0000000F81FBB681B077AD4BB6859057FF57B
:1016D000A8AEFB68009243F00203FB60414604F0B1
:1016E000DFF908EB8803102104EBC303B96008207D
:1016F0004FF4806183F85D00009AB96091E6FA6862
:101700002068009342F00202FA60414604F0C8F9F2
:101710001022BA60009BA5E6BB6820681B0600F19A
:101720008B80BB68D90640F183804FEA880303EBC6
:10173000080104EBC10191F83F10032900F0018179
:10174000434404EBC3034FF0030CA16883F85DC06E
:101750004FF0100CC7F808C093F83F3013F0FD0F9E
:101760007FF48BAE52F8093023F0804343F00043FE
:1017700042F8093081E6D6F8403423F02E03C6F84B
:1017800040342668B36943F00053B361DDE64FEAA5
:10179000880303EB0801386904EBC101C0F3120CA4
:1017A000886CA0EB0C00C86449E6B36923F00053D1
:1017B000B361204614F0ECFAA9E681F85C001AE760
:1017C000FB68009208EB880104EBC10143F00203BF
:1017D000FB604FF0050C4FF0100E082381F85DC040
:1017E000C7F808E04146BB6004F05AF9009A18E6D1
:1017F00008EB8802F96804EBC20241F0020C936521
:10180000042382F85D304146C7F80CC004F048F963
:101810004023BB60A16820682FE6029B206803F488
:10182000C023B3F5802F18BF012103F00FFF88E616
:10183000A16822E6FB68EAE608EB880304EBC30331
:10184000F9689A6D41F0020C01324FF0060EC7F8AC
:101850000CC041469A6583F85DE004F021F98023CD
:10186000BB60A168206808E603EB080104EBC10136
:10187000896D03294AD8282000FB08400131816581
:10188000022052F80910434404EBC30C21F08043BA
:1018900043F000438CF85C0042F80930ABE6FA688C
:1018A00008EB880904EBC90942F00202C9F8583074
:1018B0004146FA6004F0F4F8C7F808A0A16820686F
:1018C00089F85DA0D9E552F80900009340F0005076
:1018D00042F8090081F85CA001224146204614F03C
:1018E0005FFA009BBEE50823BB60FB6843F0020380
:1018F0004146FB6008EB880804F0D2F804EBC8030B
:10190000052283F85D20A1682068B6E5282101FB47
:101910000841002088650420B3E7FA68282101FB0C
:10192000084942F00202C9F858304146FA6004F012
:10193000B7F80322102389F85D20A1682068BB60F6
:101940009BE5F96841F00201F9604146CDE90023C9
:1019500004F0A6F82068DDE90023F1E6FB6843F017
:1019600002034146FB6004F09BF8282303FB084870
:101970000622802388F85D20A1682068BB607CE592
:10198000FB6843F002034146FB6004F089F828231A
:1019900003FB084810214FF480620823B9602068D7
:1019A000BA60A16888F85D3067E593F83F1083F866
:1019B0005C2002297FF475AE93F8512082F0010279
:1019C00083F851206DE6282303FB08439A6D511CD0
:1019D000032A996505D900210422996583F85C20C2
:1019E0005FE6022283F85C205BE6022283F83DC0BA
:1019F00083F85C2055E600BF38B590F89032012B93
:101A00000ED00446012580F89052006803F010FDC6
:101A10002946206803F052FE002084F8900238BD69
:101A2000022038BD90F89032012B0BD010B5012365
:101A3000044680F89032006804F04EF9002084F8E3
:101A4000900210BD02207047006803F01DBE00BF69
:101A500001EB810100EBC10191F85C00704700BF10
:101A6000006803F057BE00BF006803F049BE00BF26
:101A7000014B01221A60704720000E42002800F03E
:101A800032812DE9F0410368DD0782B004462FD58D
:101A9000AC498A6802F00C02042A00F0EA808A68E5
:101AA00002F00C02082A00F0E0806368B3F5803F82
:101AB00000F0E980B3F5A02F00F05481A14D2A6811
:101AC00022F480322A602A6822F480222A60002BC5
:101AD00040F0DE80FEF752FF064605E0FEF74EFFBF
:101AE000801B642800F2F2802B689B03F6D42368E5
:101AF0009F0775D41A0715D56369002B00F0A580E0
:101B0000914B904D01221A60FEF738FF064605E022
:101B1000FEF734FF801B022800F2D8806B6F9B0712
:101B2000F6D5236858073BD5864A136C13F08053CB
:101B300040F0DB800193136C43F080531364136C0B
:101B400003F080530193019B0126804D2A68D10543
:101B500040F1AC80A368012B00F0C980052B00F098
:101B60000B81784D2A6F22F001022A672A6F22F03A
:101B700004022A67002B40F0BF80FEF7FFFE41F20F
:101B80008837804606E0FEF7F9FEA0EB0800B84271
:101B900000F29C802B6F9807F5D4002E40F0DC807B
:101BA000A269CAB1674DA96801F00C01082948D0A3
:101BB000022A674A4FF00001116000F0E780FEF74B
:101BC000DDFE2C46054604E0FEF7D8FE401B022849
:101BD0007CD823689B01F7D4002002B0BDE8F081D7
:101BE000584A916811F00C0F24D0916801F00C0153
:101BF00008291CD0E368002B00F09280554B514D12
:101C000001221A60FEF7BAFE064604E0FEF7B6FEB1
:101C1000801B02285AD82B689807F7D52B682269B1
:101C200023F0F80343EAC2032B60236862E752689B
:101C30005602DFD4434A126895074BD5E268012A61
:101C400048D0012002B0BDE8F0813F4A3D4D13600D
:101C5000FEF794FE064604E0FEF790FE801B022885
:101C600034D86B6F9F07F7D45BE74A6850027FF563
:101C70001CAF344A126891037FF53AAF6268002ABC
:101C80007FF436AFDDE72F4A136843F480331360E7
:101C9000FEF774FE2B4D064604E0FEF76FFE801B38
:101CA000642813D82B689A03F7D520E72A6842F4F2
:101CB00080722A60FEF762FE07462B68DA053FF560
:101CC00049AFFEF75BFEC01B0228F6D9032002B025
:101CD000BDE8F0811B4920690A6822F0F80242EA57
:101CE000C0020A6006E70120704700262DE7154A6A
:101CF000136F43F001031367FEF740FE114D80465A
:101D000041F2883705E0FEF739FEA0EB0800B84243
:101D1000DCD82B6F9B07F6D5002E3FF441AF1BE0BC
:101D20000C4A084D1360FEF729FE064604E0FEF754
:101D300025FE801B0228C9D82B689907F7D4236891
:101D4000D8E600BF00380240800E474200700040D5
:101D50006000474200004742234A136C23F080533F
:101D600013641DE7204B1A6842F480221A601A6837
:101D700042F480321A608BE71B4B1A6F42F0040268
:101D80001A671A6F42F001021A67B5E7FEF7F6FD0F
:101D9000064604E0FEF7F2FD801B022896D82B6869
:101DA0009901F7D4D4E90736D4E90902E16A0E4C67
:101DB000334343EA8013520843EA0163013A0B4973
:101DC00043EA024301226B600A60FEF7D7FD054635
:101DD00005E0FEF7D3FD401B02283FF677AF2368EE
:101DE0009A01F6D5F8E600BF00380240600047428D
:101DF000174908B58B6803F00C03042B1BD0082B84
:101E000017D14A684B6813F4800302F03F0214D1E3
:101E100049681048C1F38811A1FB0001FEF794FB4B
:101E20000B4B5B68C3F3014301335B00B0FBF3F082
:101E300008BD084808BD084808BD4B680648C3F3FC
:101E40008813A3FB00010023FEF77EFBE8E700BF39
:101E5000003802400024F40000127A0060B1484AC1
:101E6000136803F00F038B4208D2CBB213701368D0
:101E700003F00F038B4201D00120704703682DE966
:101E8000F0419D0714D55C0704D53E4CA26842F48E
:101E9000E052A2601A0704D53A4CA26842F46042AC
:101EA000A260384C8568A26822F0F0022A43A26042
:101EB000DF0704460D4622D54268012A56D0931EFC
:101EC000012B304B1B6858D9990725D52D4EB36887
:101ED00023F003031343B360FEF750FD41F288374C
:101EE000804605E0FEF74AFDA0EB0800B84242D864
:101EF000B368626803F00C03B3EB820FF2D1204A9F
:101F0000136803F00F03AB4209D9EBB213701368E7
:101F100003F00F03AB4202D00120BDE8F08123683B
:101F20005A0706D51749E0688A6822F4E05202434E
:101F30008A601B0711D4FFF75BFF124B12499B68A5
:101F4000124AC3F30313CB5C20FA03F3002013609F
:101F500012F08CFC0020BDE8F0810A4A21699368E8
:101F600023F4604343EAC1039360E4E7054B1B6835
:101F70009E03ABD4D0E70320EDE79801A6D4CBE7CE
:101F8000003C024000380240944103082001002038
:101F9000014B1868704700BF20010020044B054A20
:101FA0009B680549C3F382230868D35CD840704717
:101FB00000380240A441030820010020044B054AD8
:101FC0009B680549C3F342330868D35CD840704727
:101FD00000380240A4410308200100200E4B0F22CC
:101FE00002609A6802F0030242609A6802F0F0020E
:101FF00082609A6802F4E052C2609B68DB0810B409
:1020000003F4E053054C036123685DF8044B03F0CF
:102010000F030B60704700BF00380240003C0240D5
:10202000F0B50546006810F0050F83B05CD110F0E4
:10203000020001D103B0F0BD454B464C0022019295
:102040001A6C42F080521A641B6C03F080530193A7
:10205000019B236843F480732360FEF78FFC0646E0
:1020600004E0FEF78BFC801B02283AD82368D905D0
:10207000F7D53749EB680A6F12F4407203F44070E9
:1020800010D082420ED00B6F334A23F440730124E8
:102090000020146010600B670B6FDA0713D4EB6835
:1020A00003F44070B0F5407F47D029498A6822F494
:1020B000F8128A60264A116FC3F30B030B4300200A
:1020C000136703B0F0BD0C46FEF758FC41F28836AA
:1020D0000746236F9B07E2D4FEF750FCC01BB042BB
:1020E000F7D9032003B0F0BD1C4B194C00221A6035
:1020F000FEF744FC064604E0FEF740FC801B022885
:10210000EFD823681F01F7D4D5E90113134A104E05
:102110001B0743EA81130121C4F884301160FEF7E4
:102120002DFC044604E0FEF729FC001B0228D8D849
:1021300033681801F7D5286879E70548826823F0E5
:10214000704122F4F81221F440710A438260B1E731
:102150000038024000700040400E4742680047428D
:10216000002868D038B5437F044603F0FF02002BF7
:1021700045D0236853220220CA21607759625A62EF
:10218000DA68550629D599686268D4E9045021F4C3
:10219000E00121F04001996099682A4302430A4313
:1021A000E1689A6019611A69A16842EA01421A61FC
:1021B000DA6822F08002DA609A68910623D5196CF9
:1021C000A06921F4802119641A6CFF2502430121C2
:1021D0001A6400205D62617738BD4FF0FF32DA602B
:1021E000FEF7CCFB054605E0FEF7C8FB401BB0F54B
:1021F0007A7F19D82368DA685006F5D5C3E70277E5
:1022000012F0ACF9B5E7DA6822F0A002DA60FEF766
:10221000B5FB05462368DA689206D0D4FEF7AEFB1C
:10222000401BB0F57A7FF5D92268FF210423516263
:102230000120637738BD0120704700BF037F012B69
:1022400000F096802DE9F04102230E46012101772E
:10225000054643770168002A36D08C68707832785A
:10226000B37814F0400414BFF478F4704FEA0020FF
:1022700040EA024018BF240418430443CA225323EF
:102280004A624B62CB685A0657D504F07F3424F07B
:10229000FE440C608A68D6E9033022F480228A600A
:1022A0008A68034313438B60CB6823F08003CB60C1
:1022B0008B689B065ED5FF200023012248621846EA
:1022C0006A772B77BDE8F0818F68307817F0400788
:1022D00016BFF778F7703F0409284FF0000407D9BC
:1022E0000A38C0B2092804F10104F9D82401E4B283
:1022F00073782043092B4FEA004457D900200A3B4A
:10230000DBB2092B00F10100F9D800015FFA80FC73
:10231000B07843EA0C0309284FEA032344D90A386A
:10232000C0B2092802F10102F9D81201D2B23C432D
:102330002343104343EA0004A0E74FF0FF33CB6090
:10234000FEF71CFB07462968CB6813F040089CD1B8
:10235000FEF714FBC01BB0F57A7FF4D92A68FF2181
:1023600004235162012085F81C806B77BDE8F08161
:1023700002207047CB6823F0A003CB60FEF7FEFA83
:1023800006462968CC6814F0200494D1FEF7F6FACA
:10239000801BB0F57A7FF4D92A68FF2104235162AB
:1023A00001202C776B778DE70022C0E74FF0000CFF
:1023B000AEE700BF036870B49D6A1C691B684D607E
:1023C00003F07F3323F0FE43180CC4F30E0400F037
:1023D000400600F03F058C60C3F30624DBB2CE70EC
:1023E0000D704C708B70BAB9220902EB82062D0970
:1023F0001A0905EB850500F00F0004F00F0402EB4D
:10240000820203F00F0300EB450004EB460403EBEC
:10241000420308704C708B70002070BC704700BF86
:10242000037F012B7DD02DE9F041054602230120D9
:1024300028776B770E78CB7848788C7876030AB358
:1024400046EA03431C4344EA00242B68CA21532272
:1024500059625A62DA68510648D524F07F4424F064
:10246000C0045C60DA6822F08002DA609A68920642
:1024700059D5FF20002201215862104669772A773A
:10248000BDE8F081C70604D520F010000A30C0B2C4
:102490004870092B4FF0000107D90A3BDBB2092B2A
:1024A00001F10101F9D80901C9B20B4309284FEA2A
:1024B00003434FF0000107D90A38C0B2092801F1DF
:1024C0000101F9D80901C9B20843092C4FEA0021DA
:1024D00043D90A3CE4B2092C02F10102F9D81201F5
:1024E000D0B21E43314304430C43AEE74FF0FF32FA
:1024F000DA60FEF743FA80462B68DF6817F0400782
:10250000ABD1FEF73BFAA0EB0800B0F57A7FF3D928
:102510002A68FF210423516201202F776B77BDE8E1
:10252000F08102207047DA6822F0A002DA60FEF73C
:1025300025FA06462B68DC6814F0200499D1FEF7D2
:102540001DFA801BB0F57A7FF4D92A68FF21042395
:10255000516201202C776B7792E70020C1E700BF22
:1025600003685B6823F07F4323F0C00370B4C3F3B8
:102570000724C3F34236180C04F01F05DBB20E70BB
:102580004D70C8708B70BAB92D09AA0006091544A0
:102590001A0904F00F0406EB860600F00F0002EBA8
:1025A000820203F00F0304EB450400EB460003EB4B
:1025B00042034C70C8708B70002070BC704700BF25
:1025C0000368503343F82120704700BF036850333D
:1025D00053F82100704700BF2DE9F0470D4686B043
:1025E000044616461F46FEF7C9F97DB3804694F8A7
:1025F0003400C0B2012807D0A36B43F00053A3639B
:10260000012006B0BDE8F087E26DF3190021934286
:10261000A16323D8636C20680322012B84F8342043
:10262000C1624FF4007118BF760202F0B9F9E0B14F
:10263000236840F2FF529A63A36B01221843A06300
:10264000104684F8342006B0BDE8F087A36B012063
:1026500043F00063A36306B0BDE8F087A36B43F0CB
:102660000073A36306B0BDE8F0874FF0FF317A0234
:10267000902304904FF0010A00914FF0020969463F
:1026800020680192CDE90239CDF814A002F074F966
:1026900057452AD9C4F830903146206802F0F2F943
:1026A00023680028C5D140F22A3A09E00E9B1BB3EB
:1026B000FEF764F90E9BA0EB080098421CD2236839
:1026C0005A6B12EA0A0F5A6B23D11104EED52E1F52
:1026D00005F11C0900E02368184602F031F946F8BC
:1026E000040FB145F7D12035E0E7C4F830A03146FA
:1026F000206802F08DF9D3E7236840F2FF529A6315
:10270000A36B012243F00043A363032084F8342029
:1027100077E7D2050AD5012F08D9626C032A05D0C4
:10272000184602F05BFA236800285BD15A6B170742
:1027300020D45A6B960729D45A6B900632D40E9A3D
:1027400062B93BE002F0FCF845F8040BFEF716F91D
:102750000E9BA0EB0800834237D923685A6B910285
:102760001846EFD440F2FF5101229963002084F80B
:10277000342046E740F2FF529A63A36B012243F0F4
:102780000803A363104684F834203AE740F2FF526E
:102790009A63A36B012243F00203A363104684F8FB
:1027A00034202EE740F2FF529A63A36B012243F0DC
:1027B0002003A363104684F8342022E75A6B920268
:1027C000D0D5184602F0BCF82860236840F2FF52CA
:1027D0009A63A36B012243F00043A363104684F87D
:1027E00034200EE740F2FF529A63A36B01220343A9
:1027F000A363104684F8342003E700BF2DE9F043BB
:102800000D4687B0044616461F46FEF7B7F8002D62
:1028100037D0804694F83400C0B2012807D0A36BAB
:1028200043F00053A363012007B0BDE8F083E26DDD
:10283000F31900219342A1632BD8636C2068032213
:10284000012B84F83420C1624FF4007118BF760266
:1028500002F0A6F820BB012F20682DD92023236386
:10286000314602F081F90346206863B340F2FF521B
:102870008263A26B01211343A363084684F83410DA
:10288000D2E7A36B012043F00063A36307B0BDE868
:10289000F083A36B43F00073A36307B0BDE8F0833C
:1028A000236840F2FF529A63A36B01221843A0638E
:1028B000104684F83420B7E710232363314602F032
:1028C0001BF90346D0E74FF0FF32CDE903337B021B
:1028D000009201939022012369460292059340F2EF
:1028E0001A3902F049F808E00E9BDBB1FEF746F812
:1028F0000E9BA0EB0800984214D22268536B13EA97
:10290000090F536B19D15E04EED505F1200600E0E6
:10291000226829461046043502F016F8AE42F7D177
:102920003546E1E7236840F2FF529A63A36BA36345
:10293000012384F83430032076E7D8050AD5012F27
:1029400008D9636C032B05D0104602F047F9002824
:1029500036D12268536B190712D4536B9B071BD4D3
:10296000536B13F0100323D040F2FF539363A36B18
:10297000012243F01003A363104684F8342053E788
:1029800040F2FF539363A36B012243F00803A36358
:10299000104684F8342047E740F2FF539363A36B5B
:1029A000012243F00203A363104684F834203BE77E
:1029B00040F2FF5501219563184684F8341033E73F
:1029C000236840F2FF529A63A36B01220343A3637F
:1029D000104684F8342027E7704700BF70B5846B39
:1029E000236C0BB100232364E56B05B170BD216D31
:1029F0002068090402F018FB064638B1A36B0122D7
:102A00001E43A663A56384F8342070BD0146206888
:102A100001F0A8FFC0F34320012305389842A663C4
:102A200084F83430E2D8206802F0D8F8A36B184359
:102A3000A063A36B204613B9FFF7CEFF70BD08F06B
:102A40006BFF70BD70B5846BE36B0BB10023E36368
:102A5000256C05B170BD216D2068090402F0E4FA0F
:102A6000064638B1A36B01221E43A663A56384F812
:102A7000342070BD0146206801F074FFC0F343208C
:102A8000012305389842A66384F83430E2D82068E0
:102A900002F0A4F8A36B1843A063A36B204613B9FC
:102AA000FFF79AFF70BD08F037FF70BD70B50446A0
:102AB0000068436BDA0528D54FF480738363C36BDA
:102AC00023F44E7323F00203C363236B13F0080F48
:102AD000236B62D09B0702D4236B9E0605D502F0C0
:102AE0007DF8002840F09F802068012340F2FF52CB
:102AF000826384F83430236BDD07204602D4236BD5
:102B00009C075ED508F014FF70BD436B5D045BD479
:102B1000436B19046AD4426B40F23A231A42F3D051
:102B2000436B9A0703D5A36B43F00203A363436B84
:102B30001B0703D5A36B43F00803A363436B9E06F7
:102B400003D5A36B43F02003A363436BDD0603D5DA
:102B5000A36B43F01003A363436B990503D5A36BE9
:102B600043F00803A36340F2FF738363C36B23F452
:102B70004E7323F00203C363236B1A0648D5206CFF
:102B8000002857D03C4B0365FEF740F80028BBD027
:102B9000206CBDE87040FFF721BF1906B4D5236B48
:102BA0009A0655D4236BDB07AED4236B9E07ABD4B8
:102BB0002268D36A012123F00803D362204684F8F7
:102BC000341008F0AFFE70BD256A4FF4804305F164
:102BD0002006836300E020682946043501F0B4FE36
:102BE000AE42F8D1236A2033236270BDA66A4FF447
:102BF0000043351F83631C3600E0206801F0A0FE0F
:102C000045F8040FB542F8D1A36A2033A36270BD22
:102C1000236B1B077FF578AF012384F834302046FF
:102C2000FFF7DAFE70BDA36B1843A0632046FFF7E1
:102C3000D3FE59E7E06BB0B1104B0365FDF7E6FF3B
:102C400000283FF461AFE06BBDE87040FFF7FABECB
:102C500001F0C4FF0028A5D0A36B1843A063204651
:102C6000FFF7BAFE9EE70123A063204684F83430C4
:102C700008F052FE70BD00BFDD290008452A00089B
:102C8000436EF0B4C3F383620446980F0870C3F335
:102C900001654A70C3F30740C3F30722DBB28D70AE
:102CA000C8700A714B71A36E1A0E1201CA80CD88CA
:102CB000C3F30350C3F307222843C880C3F303457B
:102CC000D0090D724872C2F38015C2F340108D72A4
:102CD000C872C2F3001500200D734873606C0028A1
:102CE00040F08480920202F440620A6108699A000E
:102CF00002F47F720243E36E0A610869DA0B40EA6C
:102D00009370086102F00602C3F34255C3F3824098
:102D1000C3F3C267C3F302660F754E758D75C87530
:102D20000A760A7EC3F3C03002430A760A69087E37
:102D300001320230824062650D7A0120A840450AC6
:102D400002FB05F24FF40075C4E916022566C3F3D1
:102D50000722500000F07E00C2F380124A76887687
:102D60008A7EC3F3C010024303F07F038A76CB76DA
:102D7000236F9A0DDD0FC3F34174C3F3826002F039
:102D80000C020D774C778877CA77CA7FC3F38150DE
:102D90000243CA77C3F34055C3F30044C3F3C032C0
:102DA000002081F8205081F82100C3F3803581F89C
:102DB000224081F82320C3F34034C3F3003281F86A
:102DC000245081F82540C3F3812581F82620C3F3E0
:102DD00001240122C3F3460381F8275081F82840DB
:102DE00081F82930F0BC81F82A20704701280DD0E5
:102DF000236840F2FF529A63A36B012243F0805391
:102E0000A363104684F83420F0BC70471B0403F41D
:102E10007C130B61E36E0A69180E42EA00220A6114
:102E20000869C3F3074202430A610A690132920248
:102E30004FF400706265E265A065C3F30722206667
:102E400087E700BFF0B5002599B0CDE90A55762394
:102E50000C930AAB044693E80700276809958DE8B0
:102E60000700CDE90755744E07AB0ECB384601F08D
:102E70004BFD01273560206801F06CFD02203760B2
:102E8000FDF782FD2068069501F028FF054638B160
:102E9000012084F83400A36B1D43A56319B0F0BD75
:102EA000206801F043FF00284CD0A5644FF6FF7561
:102EB000069B5A1CAB424FF00001069200F0B48012
:102EC000206801F069FF0146002840F0B0802068CA
:102ED00001F09CFF0146002840F0A980206801F025
:102EE00041FD0028E4DA0023636401232068ADF883
:102EF000163001F033FD002800F09380626C2368E7
:102F0000032A41D11846042101F02CFD000DE06494
:102F10000DA92046FFF7B4FE226D2068120400239D
:102F200001F0A2FE05460028B2D1231D54F8106B13
:102F300094E807008DE8070030460ECB01F0E4FC72
:102F40002846ABE7A7644FF6FF76069B5A1CB342B0
:102F50004FF00001069267D0206801F01DFF4FF08E
:102F600080410546002893D1206801F04FFF0546B7
:102F7000014600288CD1206801F0F4FCC30FE4D096
:102F80004200B0D56364B0E7184601F077FF05460C
:102F900000287FF47DAF0146206801F0E3FC0421A6
:102FA0006067206801F0DEFC0821A067206801F05E
:102FB000D9FC0C21E067206801F0D4FC636CC4F8F4
:102FC0008000032B36D00DF11601206801F0C8FFF8
:102FD000054600287FF45CAF626C2368032A91D019
:102FE000BDF8161021651846090401F07DFF05465D
:102FF00000287FF44DAF0146206801F0B3FC0421A6
:103000006066206801F0AEFC0821A066206801F02F
:10301000A9FC0C21E066206801F0A4FC236820676D
:1030200070E74FF0806533E74FF0807530E74FF081
:1030300080552DE7236865E7A0802542C0B190F850
:10304000343010B503F0FF0204466BB1032384F85B
:1030500034302046FFF7F6FE00230122A363184612
:10306000236384F8342010BD027711F083FAEDE772
:103070000120704770B4D0E91142D0E91336456D94
:103080000C604A60846D8B60D0E91723C1E9036549
:10309000C1E905420020CB6170BC7047016D10B5DD
:1030A00009040446006801F0BFFF20B1A16B08438A
:1030B000A063002010BD0146206801F053FCC0F35E
:1030C000432010BD00283BD090F85120002370B55C
:1030D00002F0FF010446836262B31846D4E9013569
:1030E000D4E903212B4313436269E569266A0B4344
:1030F0001343A26921682B43022584F851503343BE
:1031000002F400750E682B43120C656A02F004028B
:1031100003432A4326F040060E600B604A60CB69E9
:10312000002223F400630125CB611046626584F818
:10313000515070BD80F8501011F074FAA06ACDE7BC
:10314000012070472DE9F0410D4690F850100129FB
:1031500082B072D01E46012380F8503004461746D4
:10316000FDF70CFC804694F85100C0B2012809D04C
:1031700002200122002384F8512084F8503002B04C
:10318000BDE8F081002DF4D0002FF2D0A3682068B4
:103190002563032284F85120B3F5004F4FF000025D
:1031A0006265A263A287C4E91022E786A786E28748
:1031B000024603D1036843F4804303600368590661
:1031C0003FD5E3686168B3F5006F00F0B080002977
:1031D00051D115F8013B0373E38E2068013B9BB28C
:1031E000E3860246711C31D0002E52D0E38E9BB292
:1031F00073B183689A0755D4FDF7C0FBA0EB0800B4
:1032000086424DD9E38E20689BB20246002BF0D156
:10321000771C51D183689D07FCD583681A06FCD4BE
:10322000A3682BB90193C368019383680193019B41
:10323000606D003018BF01209BE7022002B0BDE89E
:10324000F081036843F040030360BAE7E38E9BB26A
:10325000002BDDD083689B07F8D515F8013B03737D
:10326000E38E2068013B9BB2E386E38E9BB202466D
:10327000002BEFD1CCE7E38E9BB2012BB2D1A8E7B4
:1032800015F8013B0373E38E2068013B9BB2E38694
:103290000246E38E9BB2002BBAD083689F07EFD41F
:1032A000032066E715F8013B0373E38E2068013BBA
:1032B0009BB2E386024699E78368990713D4002EF0
:1032C00000F08A80FDF75AFBA0EB0800864240F22E
:1032D0008280206802469BE7FDF750FBA0EB0800C8
:1032E0008642206804D983681B0699D5002EF3D145
:1032F0004368626823F0E003B2F5827F436000F028
:103300009080A36AB3F5005F08D103684DF6FF72A1
:1033100013400360036843F400530360012084F802
:103320005100636D202213436365626521E7002924
:1033300049D0E38E9BB2012B45D0771C16D0002ECE
:103340002FD0E38E9BB2002B3FF462AF83689907C6
:1033500031D4FDF713FBA0EB08008642A0D9E38E21
:1033600020689BB20246002BF0D151E7E38E9BB25E
:10337000002B3FF44DAF83689B07F7D535F8023B30
:10338000C360E38E013B9BB2E386E38E9BB2002BCE
:10339000F1D13DE735F8023BC360E38E013B9BB2C0
:1033A000E386E38E9BB2002B3FF432AF83689B072A
:1033B0007FF576AFEEE735F8023BC360E38E013B65
:1033C0009BB2E386BDE735F8023BC360E38E013B69
:1033D0009BB2E386B1E722685368616823F0E0039B
:1033E000B1F5827F536010D0A36AB3F5005F08D1B6
:1033F00013684DF6FF710B401360136843F40053DC
:103400001360012384F851304AE7A368B3F5004FF5
:1034100002D0B3F5806FE7D1136823F04003136047
:10342000E2E7A368B3F5004F03D0B3F5806F7FF4F4
:1034300068AF036823F04003036062E72DE9F041C1
:103440000E4690F85010012982B079D004461F46EC
:10345000012380F850301546FDF790FA94F851108A
:103460006368C9B20129804611D0B3F5827F09D0C3
:1034700002200122002384F8512084F8503002B049
:10348000BDE8F081A268002AF2D10429F0D1002E13
:103490005AD0002D58D0002F56D094F85120012A30
:1034A00004BF052284F85120002122686165E78766
:1034B000E7861068A563C4E910114106A787266353
:1034C000A78603D4116841F040011160E168B1F5AD
:1034D000006F60D0002B00F0BE80E38E9BB2012B0A
:1034E00000F0B980089B013340F0BD8022680121C3
:1034F000E38E9BB21BB9E38F9BB2002B36D071B128
:10350000E38E9BB25BB193689F0708D53378137342
:10351000E38E2268013B9BB20136E3860021E38FF4
:103520009BB2002BE4D09368D807E1D5D3682B7009
:10353000E38F2268013B9BB20135E3870121D7E786
:10354000022002B0BDE8F081012092E7916888076F
:103550005CD4089A002A00F0F280FDF70FFA089B6D
:10356000A0EB0800834240F2E9802268089901310B
:103570001346EBD193689D07FCD593681906FCD4DC
:10358000A068002840F0D8800190D3680193936828
:103590000193019B6DE7002B00F09680E38E9BB2B8
:1035A000012B00F09180089B013340F095800121B0
:1035B000E38E9BB21BB9E38F9BB2002BD6D069B1CF
:1035C000E38E9BB253B193689F0707D536F8023B51
:1035D000D360E38E013B9BB2E3860021E38F9BB275
:1035E000002BE5D09368D807E2D5D36825F8023BD5
:1035F000E38F013B9BB2E3870121D9E7FDF7BEF9D9
:10360000089B2268A0EB0800834205D993681B063B
:10361000B6D5089B002BF1D15368616823F0E00315
:10362000B1F5827F536000F0AF80A36AB3F5005F0D
:1036300008D113684DF6FF710B401360136843F413
:1036400000531360012084F85100636D202213435E
:10365000636562650DE716F8013B1373E38E013B6A
:103660009BB2E3863EE70127E38E9BB223B9E38F4B
:103670009BB2002B3FF479AF77B1E38E9BB25BB185
:1036800023689A68910707D532781A73E38E013B55
:103690009BB20136E3860027E38F9BB25BB12368C0
:1036A0009A68D20707D5DB682B70E38F013B9BB28A
:1036B0000135E3870127FDF761F9089BA0EB0800BE
:1036C0008342D1D80320D4E636F8023BD360E38EA0
:1036D000013B9BB2E38666E70127E38E9BB223B9E9
:1036E000E38F9BB2002B3FF440AF77B1E38E9BB2E8
:1036F0005BB123689A68910707D536F8022BDA6028
:10370000E38E013B9BB2E3860027E38F9BB25BB164
:1037100023689A68D20707D5DB6825F8023BE38F58
:10372000013B9BB2E3870127FDF728F9089BA0EB3B
:1037300008008342D1D8C5E700209AE623685A687A
:10374000616822F0E002B1F5827F5A6010D0A26A6F
:10375000B2F5005F08D11A684DF6FF710A401A6091
:103760001A6842F400521A60012384F85130A9E724
:10377000A268B2F5004F02D0B2F5806FE7D11A68A7
:1037800022F040021A60E2E7A368B3F5004F03D0CD
:10379000B3F5806F7FF449AF136823F040031360E3
:1037A00043E700BF38B390F8493070B5154604467A
:1037B0000E4603F0FF02CBB104F10801206800F0CF
:1037C0001BFF3146A268206800F042FF2946236BA8
:1037D000D4E9010200F05CFFA168226852F82130B0
:1037E00043F0010342F82130002070BD80F84820EA
:1037F00011F008F8E0E70120704700BF002858D01A
:1038000090F8393070B503F0FF020446B3B3236873
:10381000354DE0686168022284F83920AB421A68AD
:1038200049D0B3F1804F52D0A5F57C45AB422AD0A8
:1038300005F58065AB4226D005F58065AB4222D008
:1038400005F57845AB421ED005F57055AB4213D057
:1038500005F58065AB420FD005F58065AB420BD016
:10386000A5F59835AB4207D005F58065AB4203D08E
:1038700005F58065AB4232D125692DE080F838200E
:1038800010F02AFFC3E7A568266922F070022A43D8
:10389000164D22F440723243AB421A60D8629962EC
:1038A00001D162691A6301225A61002084F839202B
:1038B00070BD01207047A668256922F0700232436E
:1038C00022F440722A431A60D8629962E9E7A66836
:1038D000256922F07002324322F440722A431A60B2
:1038E000D8629962DFE700BF000001400004014098
:1038F0000168022210B480F839200A6801240346C6
:1039000022430A60002083F839405DF8044B704779
:103910000368DA6842F00102DA601A6842F00102D4
:103920001A600020704700BF704700BF002858D0C1
:1039300090F8393070B503F0FF020446B3B3236842
:10394000354DE0686168022284F83920AB421A687C
:1039500049D0B3F1804F52D0A5F57C45AB422AD077
:1039600005F58065AB4226D005F58065AB4222D0D7
:1039700005F57845AB421ED005F57055AB4213D026
:1039800005F58065AB420FD005F58065AB420BD0E5
:10399000A5F59835AB4207D005F58065AB4203D05D
:1039A00005F58065AB4232D125692DE080F83820DD
:1039B000FFF7BAFFC3E7A568266922F070022A4321
:1039C000164D22F440723243AB421A60D8629962BB
:1039D00001D162691A6301225A61002084F83920FA
:1039E00070BD01207047A668256922F0700232433D
:1039F00022F440722A431A60D8629962E9E7A66805
:103A0000256922F07002324322F440722A431A6080
:103A1000D8629962DFE700BF000001400004014066
:103A200010B403680C290CD8DFE801F0330B0B0B42
:103A30002E0B0B0B290B0B0B0700DA6842F0100260
:103A4000DA60186A154C012202FA01F120EA01003D
:103A500018621A6AA34241EA020119620AD0104AA6
:103A6000934207D01A685DF8044B42F0010200202F
:103A70001A6070475A6C42F400425A64F2E7DA68FE
:103A800042F00802DA60DCE7DA6842F00402DA6049
:103A9000D7E7DA6842F00202DA60D2E700000140BC
:103AA0000004014090F83830012B00F0D280F0B5CE
:103AB0000223012480F8384080F839300C2A36D8A7
:103AC000DFE802F0073535356C3535359A35353553
:103AD0003D000368D1F808E01D6A0F68774E25F0B5
:103AE00001051D621A6AD3F804C09C6922F0020223
:103AF00024F07304B34242EA0E0244EA070400F0E1
:103B0000AA806F4DAB4200F0A6804D68C3F804C098
:103B10009C615D631A629C690D6944F008049C61B4
:103B2000996921F0040199619A692A439A610023F5
:103B3000012280F8392080F838301846F0BD03683B
:103B4000D1F808C01D6A0F685C4E25F480551D62CF
:103B50001A6A5D68DC6922F4005224F4E644B34238
:103B600042EA0C3244EA072400F0928006F58066AF
:103B7000B34200F08D804E685D60DC611E641A62A5
:103B8000DC690D6944F40064DC61D96921F4806169
:103B9000D961DA6942EA0522DA61C8E70368D1F837
:103BA00008E01D6A0F68454E25F010051D621A6A6F
:103BB000D3F804C09C6922F0200224F4E644B34206
:103BC00042EA0E1244EA072453D03D4DAB4250D096
:103BD0004D68C3F804C09C619D631A629C690D69BD
:103BE00044F400649C61996921F4806199619A6947
:103BF00042EA05229A619AE70368D1F808E01D6A53
:103C00000F682E4E25F480751D621A6AD3F804C021
:103C1000DC6922F4007224F07304B34242EA0E22FB
:103C200044EA07043AD0264DAB4237D04D68C3F87A
:103C300004C0DC61DD631A62DC690D6944F00804CC
:103C4000DC61D96921F00401D961DA692A43DA61BA
:103C50006DE702207047D1E90556CF6822F00802CF
:103C60002CF4407C3A43354322F0040245EA0C0C24
:103C70004BE7D1E90556CF6822F080022CF4406C66
:103C800042EA0712354322F040024CEA850C9FE7D6
:103C90004E6925F4804545EA86156CE7D1E905565D
:103CA000CF6822F400622CF4405C42EA07223543DC
:103CB00022F480624CEA051CB8E700BF0000014016
:103CC0000004014090F83830012B67D002220368CD
:103CD000F0B480F839209A680C6822F47F4222F010
:103CE00077020125402C80F838509A6000F09380CC
:103CF00018D9702C7FD02BD9B4F5805F76D0B4F56D
:103D0000005F1CD1D1E90152CC6899682A4342EA8C
:103D1000042221F47F410A439A609A6842F4804267
:103D20009A600CE0102C42D02FD9202C38D0302CA7
:103D300005D19A6822F0700242F037029A6000239F
:103D4000012280F8392080F83830F0BC18467047DE
:103D5000502C33D0602CF2D11C6A4D68CE6824F010
:103D600010041C6299691A6A21F4704122F0A002C1
:103D700042EA051241EA063199611A629A6822F014
:103D8000700242F067029A60D9E7002CD7D19A6896
:103D900022F0700242F007029A60D0E702207047DA
:103DA0009A6822F0700242F027029A60C7E79A6888
:103DB00022F0700242F017029A60C0E71D6A1E6A84
:103DC0004C68CF6826F001061E629A6925F00A0148
:103DD00022F0F00242EA071221439A6119629A68BE
:103DE00022F0700242F057029A60A8E79A6822F027
:103DF00007029A60A3E7D1E90152CC6899682A4387
:103E000042EA042221F47F410A439A609A6842F010
:103E100077029A6093E71D6A1E6A4C68CF6826F0A5
:103E200001061E629A6925F00A0122F0F00242EAB8
:103E3000071221439A6119629A6822F0700242F0D7
:103E400047029A607BE700BF704700BF704700BF22
:103E5000704700BF704700BF03681A69910710B52B
:103E6000044602D5DA6892075FD41A69500702D572
:103E7000DA68510746D41A69120702D5DA681007C2
:103E80002ED41A69D20602D5DA68D00618D41A6977
:103E9000D10702D5DA68D2075DD41A69100602D5B7
:103EA000DA6811065FD41A69520602D5DA6850063C
:103EB00061D41A69910602D5DA68920643D410BD1E
:103EC0006FF010021A61DB69082213F4407F22763A
:103ED000204664D0FFF7BAFF002223682276D6E797
:103EE0006FF008021A61DB690422990722762046E6
:103EF00052D1FFF7A9FF2046FFF7AAFF002223684F
:103F00002276BEE76FF004021A619B69022213F465
:103F1000407F227620463CD1FFF796FF2046FFF7F0
:103F200097FF002223682276A5E76FF002021A614C
:103F30009B6901229B07027625D0FFF787FF0022AD
:103F40002368227691E76FF0200220461A61BDE8CF
:103F5000104000F051B86FF001021A6120460AF0DB
:103F6000EDFD236899E76FF080021A61204600F0AA
:103F700045F8236897E76FF040021A612046FFF783
:103F800069FF236895E7FFF75FFF2046FFF760FFB3
:103F9000D5E7FFF75BFFC4E7FFF758FFAEE7FFF792
:103FA00053FF2046FFF754FF96E700BF90F83830E4
:103FB000012B1ED002460220136870B482F839002B
:103FC0005C6824F07004D1E900565C6058682843AE
:103FD0005860986820F08000986099680024012556
:103FE00031439960204682F8395082F8384070BCDD
:103FF00070470220704700BF704700BF704700BF86
:10400000002800F004812DE9F84390F83930044687
:1040100003F0FF02002B00F0F580236826692422BC
:1040200084F83920D86820F40050D4E90225D860FB
:104030001969E06921F4405129431961D96865691A
:10404000324321F416412A4321F00C0102430A4372
:10405000DA605A69A16922F440720A43B0F5004F50
:104060005A61AA4A71D0934200F0D38002F580626F
:10407000934200F0CE80FDF791FFA54F636800EBFF
:10408000800000EB80009B00B0FBF3F3A7FB032351
:104090005B091D01FDF782FF666800EB800000EB05
:1040A0008000B600B0FBF6F6FDF778FF636800EB22
:1040B000800000EB80009B00B0FBF3F3A7FB032321
:1040C0005B094FF0640909FB13631B013233A7FB43
:1040D00003235B0903F0F006FDF760FF626800EB65
:1040E000800000EB80009300B0FBF3F8FDF756FF73
:1040F000D4E9002100EB80008B0000EB8000B0FBD6
:10410000F3F3A7FB03135B0909FB13831B01323392
:10411000A7FB0313C3F3431333432B449360136987
:1041200023F490431361536923F02A035361D36846
:104130000025202143F40053D3602846E56384F82A
:10414000391084F83A10BDE8F883934200F09F805C
:1041500002F58062934200F09A80FDF71FFF6C4FDA
:10416000636800EB800000EB80005B00B0FBF3F3C2
:10417000A7FB03235B091E01FDF710FF656800EB39
:10418000800000EB80006D00B0FBF5F5FDF706FF49
:10419000636800EB800000EB80005B00B0FBF3F392
:1041A000A7FB03235B094FF0640909FB1353DB00F2
:1041B0003233A7FB03231B0903F4F875FDF7EEFE6A
:1041C000626800EB800000EB80005300B0FBF3F866
:1041D000FDF7E4FED4E9002100EB80004B0000EB8A
:1041E0008000B0FBF3F3A7FB03135B0909FB138308
:1041F000DB003233A7FB0313C3F3421333442B44D6
:1042000093608CE780F8382010F0BCFA05E70120B5
:104210007047FDF7D3FE3E4F636800EB800000EB74
:1042200080009B00B0FBF3F3A7FB03235B091D0198
:10423000FDF7C4FE666800EB800000EB8000B6006E
:10424000B0FBF6F6FDF7BAFE636800EB800000EB0A
:1042500080009B00B0FBF3F3A7FB03234FF064093E
:104260005B0909FB13631B013233A7FB03235B09C3
:1042700003F0F006FDF7A2FE626800EB80009300F9
:1042800000EB8000B0FBF3F8FDF798FE30E7FDF798
:1042900095FE1F4F636800EB800000EB80005B0021
:1042A000B0FBF3F3A7FB03235B091E01FDF786FEBA
:1042B000656800EB800000EB80006D00B0FBF5F559
:1042C000FDF77CFE636800EB800000EB80005B0084
:1042D000B0FBF3F3A7FB03234FF064095B0909FB71
:1042E0001353DB003233A7FB03231B0903F4F875D8
:1042F000FDF764FE626800EB8000530000EB800075
:10430000B0FBF3F8FDF75AFE64E700BF0010014070
:104310001F85EB5190F83930202B18D1C9B1C2B1AB
:1043200090F83830012B12D030B400230568C284D5
:104330002124C36380F83940EC68016244F08004B2
:10434000828480F838301846EC6030BC7047022018
:1043500070470120704700BF90F83A30202B1CD1E5
:10436000E9B1E2B190F83830012B16D030B4002317
:104370000468C2852225C36380F83A506569828546
:1043800045F00105816280F838306561E26842F4E9
:1043900090721846E26030BC7047022070470120DE
:1043A000704700BF704700BF03681A6870B51607F2
:1043B0000446D868596973D011F0010179D0D60745
:1043C00005D5C50503D5E56B45F00105E563560741
:1043D00002F0020540F19F8069B1E16B41F00201FA
:1043E000E16302F00806002D40F09B801EB1E16BF6
:1043F00041F00801E163E16B002959D0950628D509
:10440000800626D594F83A20222A22D1A168206974
:10441000A26AB1F5805F00F0D580511C5B68A16293
:1044200008B103F07F0313702368E28D013A92B262
:10443000E28572B9DA6822F49072DA605A69202152
:1044400022F001025A61204684F83A1009F052FA2B
:1044500023685D69E16B090703D415F0400500F09E
:104460009380DA6822F49072DA605A69202122F08F
:1044700001025A6184F83A105A6952065DD55A69A8
:10448000606B22F040025A61002856D0544B0365FD
:10449000FCF7BCFB60B1606BBDE87040036D184772
:1044A000950609D5810607D594F83A20222A48D0E6
:1044B00070BD10F4907F82D116060ED45106F7D548
:1044C0004206F5D5DA68202122F04002DA60204663
:1044D00084F8391009F028FA70BD0506EED594F875
:1044E0003920212AE4D1A168226AB1F5805F50D039
:1044F000511C216212785A60E28C013A92B2E28435
:10450000002AD5D1DA6822F08002DA60DA6842F057
:104510004002DA6070BD4DB100293FF46CAF02F08B
:104520000806E16B41F00401E1635FE716077FF5E0
:1045300062AF00297FF45BAF5DE72046FFF732FFF3
:1045400070BDA1682069A26AB1F5805F2AD0511CB4
:104550005B68A16208B103F07F031370E38D013B38
:104560009BB2E385002BA3D12368DA6822F4907212
:10457000DA605A69202122F001025A61204684F84B
:104580003A1009F0B7F970BD2046FFF70BFFE5635D
:1045900070BD11882069C1F30801596050B9023219
:1045A0002262A9E75B6840B9C3F3080322F8023B23
:1045B000A262D3E7013222629EE7DBB222F8013B1E
:1045C000A262CBE7596828B9C1F3080122F8021B9F
:1045D000A2622AE7C9B222F8011BA26225E700BF46
:1045E000E545000808B5836B0022DA851846DA84B1
:1045F000FFF7D8FE08BD00BFD1E90132F0B4D1E920
:104600000365134333434C69CF6B2B43D1E90665F4
:1046100023433343D1E908642B433343D1E90A658B
:1046200023430C6833432B430E6B50F82450074947
:104630003B43334329400B43082A08BF43F0400360
:1046400040F824300020F0BC704700BF8000F0FF2D
:1046500070B400EB82028C690B68D1E90106234338
:1046600043EA0013D1E903504C69516843EA062339
:1046700043EA0543013843EA0053023C43EA04633A
:1046800001F040410B430020536070BC704700BFF5
:10469000B3F5804F05D06FF0704340F82230002012
:1046A000704770B40B688D694C682B43D1E9026583
:1046B00043EA0413064950F8224043EA062343EA3A
:1046C000054321400B4340F8223070BC0020704766
:1046D0000000F0CF2DE9F04F0C6894FAA4F24E6878
:1046E000B2FA82F234FA02F306F1FF3E79D04FF0CB
:1046F000010C03274FF00F0803E0013234FA02F3F4
:104700006FD00CFA02F32340F7D0D0F8009093FA60
:10471000A3FABAFA8AFA93FAA3F5B5FA85F54FEA3D
:104720004A0A6D0007FA0AFA06FA05F529EA0A09A3
:1047300049EA0505BEF1010F056016D8856893FAB0
:10474000A3F9B9FA89F993FAA3FA4FEA490907FAE2
:1047500009F925EA0909BAFA8AFA8D684FEA4A0A7C
:1047600005FA0AF549EA05058560C56893FAA3F9D3
:10477000B9FA89F993FAA3FA4FEA490907FA09F94C
:1047800025EA0909BAFA8AFA0D694FEA4A0A05FACE
:104790000AF549EA0505022EC560AED193FAA3FADF
:1047A000BAFA8AFABAF1070F4FEA1325D1F8149032
:1047B00025DC056A93FAA3FABAFA8AFA93FAA3F304
:1047C000B3FA83F34FEA8A0A9B0008FA0AFA09FA55
:1047D00003F325EA0A052B430132036234FA02F39C
:1047E0008FD1BEF1010F07D8CA68436802FB04F2FB
:1047F00023EA0404144344600120BDE8F08FD0F89C
:1048000024A095FAA5FBBBFA8BFB95FAA5F3B3FAA6
:1048100083F34FEA8B0B9B0008FA0BFB09FA03F3B7
:104820002AEA0B0A4AEA0303436266E782B000F110
:10483000140340F2FF510022816301920193019B16
:1048400030481B68184040B3934228DB59002DD4F0
:104850009A002ED4D90026D41A012FD4590130D46D
:10486000DA0128D419022FD45A0230D4990231D453
:10487000DA0232D4590333D49A0334D4D90335D469
:104880001A0436D4590437D49A0438D413F0080FD4
:1048900014BF4FF400004FF4803002B070474FF067
:1048A000007002B070474FF48070F6E7402002B00D
:1048B00070478020F1E74FF40060EEE74FF400709E
:1048C000EBE74FF48060E8E74FF48050E5E74FF402
:1048D0000050E2E74FF48040DFE74FF40040DCE7B0
:1048E0004FF40030D9E74FF48020D6E74FF4002092
:1048F000D3E74FF48010D0E74FF40010CDE74FF42A
:104900008000CAE708E0FFFD84B030B403AC84E85F
:104910000E000B46DDE90412DDE906540B43134398
:104920002B4342680899234330BC22F4FD420B43D9
:1049300022F07F021343436004B00020704700BFA1
:10494000D0F88000704700BF0B68C0F880300020AE
:10495000704700BF0323036000207047006800F029
:104960000300704782B01430014400230193019189
:10497000019B186802B0704730B4D1E90042D1E918
:10498000023544620C698262C26A49692B4323433F
:1049900022F0F7020B431343C36230BC0020704780
:1049A0008160194BC26819491B6822F47F62A1FB20
:1049B000031322F00F02590A42F48A6241F288334B
:1049C000C26003FB01F303E0426B12F0450F05D117
:1049D00013F1FF33F8D24FF000407047436B5A0792
:1049E0000CD4436BDB0705D40369DBB2102B09D071
:1049F00001207047012383631846704704238363B3
:104A000018467047FFF712BF20010020D34D6210F7
:104A10008160C268194B1A491B6822F47F6222F038
:104A20000F02A1FB031342F48A62590A42F0010209
:104A300041F28833C26003FB01F303E0426B12F0E2
:104A4000450F05D113F1FF33F8D24FF00040704706
:104A5000436B5A070CD4436BDB0705D40369DBB205
:104A6000112B09D00120704701238363184670473A
:104A70000423836318467047FFF7D8BE2001002047
:104A8000D34D62108160C268194B1A491B6822F429
:104A90007F6222F00F02A1FB031342F48A62590ADB
:104AA00042F0020241F28833C26003FB01F303E0EB
:104AB000426B12F0450F05D113F1FF33F8D24FF0DE
:104AC00000407047436B5A070CD4436BDB0705D497
:104AD0000369DBB2122B09D00120704701238363E5
:104AE000184670470423836318467047FFF79EBE3D
:104AF00020010020D34D62108160194BC268194912
:104B00001B6822F47F62A1FB031322F00F02590AF3
:104B100042F48B6241F28833C26003FB01F303E08D
:104B2000426B12F0450F05D113F1FF33F8D24FF06D
:104B300000407047436B5A070CD4436BDB0705D426
:104B40000369DBB2182B09D001207047012383636E
:104B5000184670470423836318467047FFF766BE04
:104B600020010020D34D62108160C268194B1A49A0
:104B70001B6822F47F6222F00F02A1FB031342F4B0
:104B80008B62590A42F0010241F28833C26003FB92
:104B900001F303E0426B12F0450F05D113F1FF332F
:104BA000F8D24FF000407047436B5A070CD4436B68
:104BB000DB0705D40369DBB2192B09D0012070474C
:104BC00001238363184670470423836318467047A4
:104BD000FFF72CBE20010020D34D6210002310B43B
:104BE0008360C2681D4B1E4C19681E4B22F47F6205
:104BF00022F00F0242F48962A4FB014142F0040258
:104C0000490AC26003FB01F39BB1426B12F0450FEE
:104C100003F1FF33F8D0436B5A0715D4436BDB071E
:104C20000CD40369DBB20C2B14D001205DF8044BCB
:104C300070474FF000405DF8044B704701238363D9
:104C40005DF8044B18467047042383635DF8044BFA
:104C5000184670475DF8044BFFF7E8BD20010020BF
:104C6000D34D621000E1F5058260C268194B1A4904
:104C70001B6822F47F6222F00F02A1FB031342F4AF
:104C80008862590A42F0070241F28833C26003FB8E
:104C900001F303E0426B12F0450F05D113F1FF332E
:104CA000F8D24FF000407047436B5A070CD4436B67
:104CB000DB0705D40369DBB2072B09D0012070475D
:104CC00001238363184670470423836318467047A3
:104CD000FFF7ACBD20010020D34D6210002383609C
:104CE000104BC26810491B6822F47F62A1FB0313BA
:104CF00022F00F02590A42F4806241F28833C26006
:104D000003FB01F302E0426B120605D413F1FF33FB
:104D1000F9D24FF00040704740F2FF538363002008
:104D2000704700BF20010020D34D62104FF4D573AF
:104D30008360174BC2681B680146164822F47F62E5
:104D4000A0FB030322F00F02580A42F4896241F2E9
:104D50008833CA6003FB00F303E04A6B12F0450F8F
:104D600005D113F1FF33F8D24FF000407047486B84
:104D700010F0040008D14B6B13F0400302D0402325
:104D80008B6370471846704740238B63042070473D
:104D900020010020D34D62108160C268194B1A496E
:104DA0001B6822F47F6222F00F02A1FB031342F47E
:104DB0008E62590A42F0070241F28833C26003FB57
:104DC00001F303E0426B12F0450F05D113F1FF33FD
:104DD000F8D24FF000407047436B5A070CD4436B36
:104DE000DB0705D40369DBB2372B09D001207047FC
:104DF0000123836318467047042383631846704772
:104E0000FFF714BD20010020D34D621041F0004196
:104E100041F4801110B48160C268164B16491B68BA
:104E200022F47F6222F00F02A1FB031342F48D6291
:104E3000590A42F0010241F288330446C26003FB82
:104E400001F303E0626B12F0450F07D113F1FF335A
:104E5000F8D24FF000405DF8044B7047606B10F0E3
:104E6000040015BF042040F2FF53A063A3635DF864
:104E7000044B704720010020D34D62100023836053
:104E8000C268174B01461B68164822F47F6222F065
:104E90000F02A0FB030342F49862580A42F0020298
:104EA00041F28833CA6003FB00F303E04A6B12F05F
:104EB000450F05D113F1FF33F8D24FF00040704792
:104EC0004B6B5B0709D4486B10F0010015BF012044
:104ED00040F2FF5388638B637047042088637047F8
:104EE00020010020D34D621010B48160C2681A4BBB
:104EF0001A491B6822F47F6222F00F02A1FB031300
:104F000042F49962590A42F0010241F288330446A0
:104F1000C26003FB01F303E0626B12F0450F07D19F
:104F200013F1FF33F8D24FF000405DF8044B7047A7
:104F3000636B5B070BD4606B10F0010015BF0120A1
:104F400040F2FF53A063A3635DF8044B7047042055
:104F5000A0635DF8044B704720010020D34D621020
:104F6000002310B48360C2682D4B2E4C1B6822F4C2
:104F70007F6222F00F02A4FB034342F488625C0AC2
:104F800042F0030241F2883383B0C26003FB04F3B2
:104F900003E0426B12F0450F08D113F1FF33F8D252
:104FA0004FF0004003B05DF8044B7047436B5C0763
:104FB00013D4436B13F0010308D10269D2B2032A60
:104FC00012D0012003B05DF8044B704701238363C6
:104FD000184603B05DF8044B7047042383631846FA
:104FE00003B05DF8044B704700F1140240F2FF5427
:104FF000846301930192019B1B6813F4604009D004
:105000005A040AD413F4004F14BF4FF480504FF4E5
:105010008030C7E71B0C0B80C4E74FF40050C1E79A
:1050200020010020D34D62108160C268194B1A49DB
:105030001B6822F47F6222F00F02A1FB031342F4EB
:105040008962590A42F0050241F28833C26003FBCB
:1050500001F303E0426B12F0450F05D113F1FF336A
:10506000F8D24FF000407047436B5A070CD4436BA3
:10507000DB0705D40369DBB20D2B09D00120704793
:1050800001238363184670470423836318467047DF
:10509000FFF7CCBB20010020D34D621070B4314D1E
:1050A00003688C680A88A8424FD0B0F1804F29D09D
:1050B000A5F57C45A84237D005F58065A84233D0D8
:1050C00005F58065A8422FD005F57845A8422BD07C
:1050D00005F57055A84213D005F58065A8420FD09C
:1050E00005F58065A8420BD0A5F59835A84207D0F4
:1050F00005F58065A84203D005F58065A84209D171
:10510000C96804E04D68C96823F070032B4323F499
:1051100040730B430360C4628262436943F001033E
:10512000436170BC012070474D68CE6823F0700366
:105130002B430D4D23F440733343A8420360C462F4
:105140008262EAD10B7C0363E7E74E68CD6823F007
:105150007003334323F440732B430360C4628262C1
:10516000F0E700BF00000140000401401029F0B446
:10517000034679D050D9B1F5807F29D0B1F5805F51
:105180006FD1006A14696C4D20F48050D2E9006739
:105190001862196A586821F4005141EA0431DC6947
:1051A00021F4805124F4E644AB4241EA073144EA59
:1051B000062400F0928005F58065AB4200F08D80FA
:1051C000D2685860DC6101201A641962F0BC704733
:1051D000046A1069584D24F48074D2E900671C6297
:1051E000196A5C6821F4007141EA0021D86921F450
:1051F000807120F07300AB4241EA072146EA0006C5
:1052000056D04E48834253D0D2685C600120DE61A4
:10521000DA63F0BC19627047012922D1046A10696F
:10522000454D24F00104D2E900671C62196A5C68EC
:1052300021F002010143986921F0010120F073007F
:10524000AB4241EA070146EA000661D03B4883428F
:105250005ED0D2685C6001209E615A63F0BC196226
:1052600070470020F0BC7047046A1069324D24F08A
:105270001004D2E900671C62196A5C6821F0200101
:1052800041EA0011986921F0100120F4E640AB4298
:1052900041EA071140EA062625D02848834222D059
:1052A000D2685C6001209E619A63F0BC196270470D
:1052B000D2E9050721F4006124F4805441EA8021F9
:1052C00044EA07149068D56921F4806124F40054FD
:1052D00041EA802144EA451496E7956920F480402C
:1052E00040EA85106CE7D2E9050721F0800124F43B
:1052F000806441EA801144EA87049068D56921F00E
:10530000400124F4006441EA801144EAC504C7E77F
:10531000D2E9050721F0080124F4807441EA8001F4
:105320003C439068D56921F0040124F4007441EAFB
:10533000800144EA45048CE700000140000401407C
:1053400030B4D1E901450B7B0A682B4323F4806319
:10535000234323F400631343CA8923F48053D1E920
:105360000441134323F40053234323F440430B43EA
:10537000436430BC0120704784B030B4089D03AC56
:10538000012D84E80E0031D1836B0F9A23F4803312
:105390008363C36823F4840323F04003C360C368BA
:1053A000012A23F44013C3603AD0204B01E0013BB3
:1053B0000DD00269002AFADA02691C4B42F00102A0
:1053C000026101E0013B02D00269D107FAD4069BD9
:1053D000012B07D1836843F006038360836843F0A1
:1053E0002003836030BC002004B07047C2680F4BBC
:1053F00042F04002C26001E0013B0DD00269002A88
:10540000FADA0269094B42F00102026101E0013B54
:1054100002D00269D207FAD44FF480338363D6E70F
:10542000C36843F48013C360BFE700BF400D0300AF
:1054300002460020936843F001039360704700BF69
:1054400002460020936823F001039360704700BF79
:1054500008B5C368012923F0C043C36009D019B956
:10546000C36843F08043C3603220FBF78DFA00200D
:1054700008BDC36843F00053C3603220FBF784FAD1
:10548000002008BD890141F020010161054A01E0C9
:10549000013A05D0036913F02003F9D1184670478B
:1054A00003207047400D030010230361054A01E00B
:1054B000013A05D0036913F01003F9D1184670477B
:1054C00003207047400D030010B49DF804406CB9F0
:1054D00003339B080AD000F5805000EB023201EB49
:1054E000830351F8040B10608B42FAD100205DF861
:1054F000044B7047033292080DD010B401EB8202C6
:1055000000F580540846236840F8043B8242FAD1F3
:105510005DF8044B70470846704700BF42698069D8
:1055200010407047406900F00100704784B030B50A
:1055300004460020C4F8000EA06B83B020F4802045
:10554000A06307ADA06B85E80E0020F40020A063E7
:10555000A36BDDE9081243F40013A363032AD4F814
:10556000003457D023F00403C4F800344FF48463AC
:105570002361304B01E0013B02D022699006FAD44E
:10558000102323612B4B01E0013B02D02269D2069C
:10559000FAD461B10022154604F5A0634FF0FF3044
:1055A00001328A429860DD6003F12003F8D1D4F81B
:1055B00040340193019B23F02E030193019BDB04F4
:1055C00004D4019B43F48053C4F84034C820019BA9
:1055D000FBF7DAF900224FF0FF33B4F1A04FA261DC
:1055E00063611FD04FF40071134A144B6162A262D1
:1055F000C4F800310A9B1BB9A36943F01003A361EF
:10560000A2690F4B00201343A36103B0BDE83040F3
:1056100004B07047B4F1A04FA4D043F00403C4F821
:105620000034A3E78021074A074B6162A262C4F8F5
:105630000031DFE7400D0300000200010003E0003D
:10564000080020A380006000E0004000D0F8003493
:1056500023F00303C0F80034D0F8002401F0030362
:1056600013430129C0F8003400F5806006D00229F8
:1056700004BF41F270734360002070474BF68033E3
:1056800043600020704700BF10B5044682B0D4F8D4
:1056900040340193019B23F02E030193019B43F4BB
:1056A0008073C4F840340A20FBF76EF9019B002098
:1056B00023F48073C4F8403402B010BD82B0D0F837
:1056C00040340193019B23F02E030193019B13F4BB
:1056D000805F019B01D101290AD0DB0405D521B9E6
:1056E000019B23F48053C0F84034002002B070477F
:1056F00043F48053C0F84034019B002002B070474F
:1057000082B0D0F8403401930198C0F3414002B018
:10571000704700BF00F58060806880B2704700BFAE
:105720002DE9F04100F5A06505EB41159DF81C60E1
:105730009DF81870BDF820404FF0FF3CC5F808C038
:105740004FFA82FC032E13D8DFE806F00251024321
:1057500040F29D4EBCF1000FC5F80CE040DBB0F10B
:10576000A04F05D0D5F80CE04EF0600EC5F80CE067
:105770009B05D20203F0FE5302F4F042D0F81884E5
:105780001A43012303FA01F141EA0801C4F30A03B1
:10579000C0F8181413430CF4004CB404022F8269AF
:1057A00043EA0C0304F4402414BF00214FF40031F9
:1057B00023430B4342F00072032E826100F5806E9A
:1057C0002B6003D12B6843F000532B600020BDE811
:1057D000F08140F29D6EBCF1000FC5F80CE0C7DA15
:1057E000D5F80CE04EF4807EC5F80CE0C0E740F23E
:1057F000252EBCF1000FC5F80CE0B9DAD5F80CE0A5
:105800004EF4C07EC5F80CE0B2E700BF80B58AB0A8
:1058100002AFF860B9601346FB7100237B77002369
:105820007B830023FB834FF480733B8300237B61E6
:10583000FB68B3F1A04F2AD0BB681B79002B26D19F
:10584000FB79002B0BD1BB685B79012B07D1BB68BF
:105850005B781946F86800F005FA002309E1FB7946
:10586000012B14D1BB685B785A01FB68134403F524
:10587000A063DB68BA6852785101FA680A4402F5FD
:10588000A06223F06003D360BB6800225A71BB683A
:105890001B69002B19D0BB681B69BA6812891344B5
:1058A000013BBA681289B3FBF2F3FB83FA8B3B8BA3
:1058B0009A420CD93B8BFB83FB8BBA68128902FBA3
:1058C00003F31A46BB681A6101E00123FB83BB683E
:1058D000DB78002B07D0FB8BBA68128902FB03F33D
:1058E0001A46BB681A61BB681B69C3F31202FB8BC3
:1058F000DB041946614B0B401A43BB689B7A5B077C
:1059000003F0C043B96849784801F968014401F5DA
:10591000A06113430B61FB79002B0AD0BB68D968E7
:10592000BB685B785A01FB68134403F5A0630A4621
:105930005A61FB6803F580639B6803F00103002B49
:105940000CBF01230023DBB27B77BB685B785A0175
:10595000FB68134403F5A0631B68BA6852785101D1
:10596000FA680A4402F5A06223F000531360BB6892
:105970005B785A01FB68134403F5A0631B687A7FC8
:1059800052071046BA6852785101FA680A4402F583
:10599000A06203431360BB685B785A01FB68134441
:1059A00003F5A0631B687B617B6923F080437B6107
:1059B0007B6943F000437B61BB685B785A01FB68FD
:1059C000134403F5A0631A467B691360FB79002B2F
:1059D0004ED1BB68DB78002B4AD1BB681B69002B1A
:1059E00046D0BB68DB79032B30D801A252F823F0F4
:1059F000015A0008255A0008015A0008255A0008D3
:105A0000BB681B6903339B087B837A8BFB68DB6A6B
:105A10009BB29A421CD9FB689B6943F02002FB6849
:105A20009A6115E0BB681B6903339B087B837A8B03
:105A3000FB6803F580631B699BB29A420AD9FB6835
:105A40009B6943F08062FB689A6103E000BF02E05B
:105A500000BF00E000BFBB68D968BB685A78BB686C
:105A60001B6998B2002300930346F868FFF72CFDEA
:105A7000002318462037BD4680BD00BF0000F81F38
:105A800080B483B000AF78607B6803F580635B69A6
:105A90009BB218460C37BD465DF8047B704700BFCB
:105AA00080B485B000AF78600B46FB700023FB60CC
:105AB000FB785A017B68134403F5A0631B689B0CB9
:105AC00003F00303002B0BD0FB785A017B681344CF
:105AD00003F5A0631B689B0C03F00303022B5CD14E
